{
  "contractName": "SocialMedia",
  "abi": [
    {
      "anonymous": false,
      "inputs": [
        {
          "indexed": true,
          "internalType": "uint256",
          "name": "postId",
          "type": "uint256"
        },
        {
          "indexed": true,
          "internalType": "uint256",
          "name": "commentId",
          "type": "uint256"
        },
        {
          "indexed": true,
          "internalType": "address",
          "name": "userAddress",
          "type": "address"
        },
        {
          "indexed": false,
          "internalType": "string",
          "name": "text",
          "type": "string"
        }
      ],
      "name": "CommentAdded",
      "type": "event"
    },
    {
      "anonymous": false,
      "inputs": [
        {
          "indexed": true,
          "internalType": "uint256",
          "name": "postId",
          "type": "uint256"
        },
        {
          "indexed": true,
          "internalType": "address",
          "name": "userAddress",
          "type": "address"
        },
        {
          "indexed": false,
          "internalType": "string",
          "name": "text",
          "type": "string"
        }
      ],
      "name": "PostCreated",
      "type": "event"
    },
    {
      "inputs": [],
      "name": "postCount",
      "outputs": [
        {
          "internalType": "uint256",
          "name": "",
          "type": "uint256"
        }
      ],
      "stateMutability": "view",
      "type": "function",
      "constant": true
    },
    {
      "inputs": [
        {
          "internalType": "uint256",
          "name": "",
          "type": "uint256"
        }
      ],
      "name": "posts",
      "outputs": [
        {
          "internalType": "uint256",
          "name": "id",
          "type": "uint256"
        },
        {
          "internalType": "string",
          "name": "text",
          "type": "string"
        },
        {
          "internalType": "string",
          "name": "gif",
          "type": "string"
        },
        {
          "internalType": "uint256",
          "name": "timestamp",
          "type": "uint256"
        }
      ],
      "stateMutability": "view",
      "type": "function",
      "constant": true
    },
    {
      "inputs": [
        {
          "internalType": "address",
          "name": "",
          "type": "address"
        }
      ],
      "name": "users",
      "outputs": [
        {
          "internalType": "address",
          "name": "userAddress",
          "type": "address"
        },
        {
          "internalType": "string",
          "name": "name",
          "type": "string"
        }
      ],
      "stateMutability": "view",
      "type": "function",
      "constant": true
    },
    {
      "inputs": [],
      "name": "isRegistered",
      "outputs": [
        {
          "internalType": "bool",
          "name": "",
          "type": "bool"
        }
      ],
      "stateMutability": "view",
      "type": "function",
      "constant": true
    },
    {
      "inputs": [
        {
          "internalType": "string",
          "name": "_name",
          "type": "string"
        }
      ],
      "name": "createUser",
      "outputs": [],
      "stateMutability": "nonpayable",
      "type": "function"
    },
    {
      "inputs": [
        {
          "internalType": "string",
          "name": "_text",
          "type": "string"
        },
        {
          "internalType": "string[]",
          "name": "_tags",
          "type": "string[]"
        },
        {
          "internalType": "string",
          "name": "_gif",
          "type": "string"
        },
        {
          "internalType": "address[]",
          "name": "_mentions",
          "type": "address[]"
        }
      ],
      "name": "createPost",
      "outputs": [],
      "stateMutability": "nonpayable",
      "type": "function"
    },
    {
      "inputs": [
        {
          "internalType": "uint256",
          "name": "_postId",
          "type": "uint256"
        },
        {
          "internalType": "string",
          "name": "_text",
          "type": "string"
        },
        {
          "internalType": "uint256",
          "name": "_replyTo",
          "type": "uint256"
        }
      ],
      "name": "addComment",
      "outputs": [],
      "stateMutability": "nonpayable",
      "type": "function"
    }
  ],
  "bytecode": "0x608060405234801561001057600080fd5b50611581806100206000396000f3fe608060405234801561001057600080fd5b506004361061007d5760003560e01c8063507ffba51161005b578063507ffba5146100f15780636c6db1361461010d5780637776a21b14610129578063a87430ba146101455761007d565b80630b1e7f831461008257806317906c2e146100b557806322366844146100d3575b600080fd5b61009c60048036038101906100979190610b9c565b610176565b6040516100ac9493929190610c71565b60405180910390f35b6100bd6102b6565b6040516100ca9190610cc4565b60405180910390f35b6100db6102bc565b6040516100e89190610cfa565b60405180910390f35b61010b60048036038101906101069190610e4a565b610354565b005b61012760048036038101906101229190610e93565b6104f7565b005b610143600480360381019061013e9190611109565b610703565b005b61015f600480360381019061015a91906111e0565b610848565b60405161016d92919061121c565b60405180910390f35b600160205280600052604060002060009150905080600001549080600101805461019f9061127b565b80601f01602080910402602001604051908101604052809291908181526020018280546101cb9061127b565b80156102185780601f106101ed57610100808354040283529160200191610218565b820191906000526020600020905b8154815290600101906020018083116101fb57829003601f168201915b50505050509080600301805461022d9061127b565b80601f01602080910402602001604051908101604052809291908181526020018280546102599061127b565b80156102a65780601f1061027b576101008083540402835291602001916102a6565b820191906000526020600020905b81548152906001019060200180831161028957829003601f168201915b5050505050908060050154905084565b60025481565b60008073ffffffffffffffffffffffffffffffffffffffff166000803373ffffffffffffffffffffffffffffffffffffffff1673ffffffffffffffffffffffffffffffffffffffff16815260200190815260200160002060000160009054906101000a900473ffffffffffffffffffffffffffffffffffffffff1673ffffffffffffffffffffffffffffffffffffffff161415905090565b600073ffffffffffffffffffffffffffffffffffffffff166000803373ffffffffffffffffffffffffffffffffffffffff1673ffffffffffffffffffffffffffffffffffffffff16815260200190815260200160002060000160009054906101000a900473ffffffffffffffffffffffffffffffffffffffff1673ffffffffffffffffffffffffffffffffffffffff1614610424576040517f08c379a000000000000000000000000000000000000000000000000000000000815260040161041b906112f8565b60405180910390fd5b60405180604001604052803373ffffffffffffffffffffffffffffffffffffffff168152602001828152506000803373ffffffffffffffffffffffffffffffffffffffff1673ffffffffffffffffffffffffffffffffffffffff16815260200190815260200160002060008201518160000160006101000a81548173ffffffffffffffffffffffffffffffffffffffff021916908373ffffffffffffffffffffffffffffffffffffffff16021790555060208201518160010190805190602001906104f0929190610914565b5090505050565b60025483111561053c576040517f08c379a000000000000000000000000000000000000000000000000000000000815260040161053390611364565b60405180910390fd5b6000825111610580576040517f08c379a0000000000000000000000000000000000000000000000000000000008152600401610577906113d0565b60405180910390fd5b60006001600085815260200190815260200160002090506000600182600601805490506105ad919061141f565b905060006040518060a00160405280838152602001428152602001868152602001600067ffffffffffffffff8111156105e9576105e8610d1f565b5b6040519080825280602002602001820160405280156106175781602001602082028036833780820191505090505b5081526020018581525090508260060181908060018154018082558091505060019003906000526020600020906005020160009091909190915060008201518160000155602082015181600101556040820151816002019080519060200190610681929190610914565b50606082015181600301908051906020019061069e92919061099a565b506080820151816004015550503373ffffffffffffffffffffffffffffffffffffffff1682877f96d81cac001a263174d42d42cfad470fec9d863bcf6d52ba8b93d47c7ee00de3886040516106f39190611475565b60405180910390a4505050505050565b6000845111610747576040517f08c379a000000000000000000000000000000000000000000000000000000000815260040161073e906114e3565b60405180910390fd5b6002600081548092919061075a90611503565b91905055506000600160006002548152602001908152602001600020905060025481600001819055508481600101908051906020019061079b929190610914565b50838160020190805190602001906107b49291906109e7565b50828160030190805190602001906107cd929190610914565b50818160040190805190602001906107e6929190610a47565b504281600501819055503373ffffffffffffffffffffffffffffffffffffffff166002547f8e40a51278abe2f4b410c0a96ff0bdd024b22666ca334062bf72afd596984bd6876040516108399190611475565b60405180910390a35050505050565b60006020528060005260406000206000915090508060000160009054906101000a900473ffffffffffffffffffffffffffffffffffffffff16908060010180546108919061127b565b80601f01602080910402602001604051908101604052809291908181526020018280546108bd9061127b565b801561090a5780601f106108df5761010080835404028352916020019161090a565b820191906000526020600020905b8154815290600101906020018083116108ed57829003601f168201915b5050505050905082565b8280546109209061127b565b90600052602060002090601f0160209004810192826109425760008555610989565b82601f1061095b57805160ff1916838001178555610989565b82800160010185558215610989579182015b8281111561098857825182559160200191906001019061096d565b5b5090506109969190610ad1565b5090565b8280548282559060005260206000209081019282156109d6579160200282015b828111156109d55782518255916020019190600101906109ba565b5b5090506109e39190610ad1565b5090565b828054828255906000526020600020908101928215610a36579160200282015b82811115610a35578251829080519060200190610a25929190610914565b5091602001919060010190610a07565b5b509050610a439190610aee565b5090565b828054828255906000526020600020908101928215610ac0579160200282015b82811115610abf5782518260006101000a81548173ffffffffffffffffffffffffffffffffffffffff021916908373ffffffffffffffffffffffffffffffffffffffff16021790555091602001919060010190610a67565b5b509050610acd9190610ad1565b5090565b5b80821115610aea576000816000905550600101610ad2565b5090565b5b80821115610b0e5760008181610b059190610b12565b50600101610aef565b5090565b508054610b1e9061127b565b6000825580601f10610b305750610b4f565b601f016020900490600052602060002090810190610b4e9190610ad1565b5b50565b6000604051905090565b600080fd5b600080fd5b6000819050919050565b610b7981610b66565b8114610b8457600080fd5b50565b600081359050610b9681610b70565b92915050565b600060208284031215610bb257610bb1610b5c565b5b6000610bc084828501610b87565b91505092915050565b610bd281610b66565b82525050565b600081519050919050565b600082825260208201905092915050565b60005b83811015610c12578082015181840152602081019050610bf7565b83811115610c21576000848401525b50505050565b6000601f19601f8301169050919050565b6000610c4382610bd8565b610c4d8185610be3565b9350610c5d818560208601610bf4565b610c6681610c27565b840191505092915050565b6000608082019050610c866000830187610bc9565b8181036020830152610c988186610c38565b90508181036040830152610cac8185610c38565b9050610cbb6060830184610bc9565b95945050505050565b6000602082019050610cd96000830184610bc9565b92915050565b60008115159050919050565b610cf481610cdf565b82525050565b6000602082019050610d0f6000830184610ceb565b92915050565b600080fd5b600080fd5b7f4e487b7100000000000000000000000000000000000000000000000000000000600052604160045260246000fd5b610d5782610c27565b810181811067ffffffffffffffff82111715610d7657610d75610d1f565b5b80604052505050565b6000610d89610b52565b9050610d958282610d4e565b919050565b600067ffffffffffffffff821115610db557610db4610d1f565b5b610dbe82610c27565b9050602081019050919050565b82818337600083830152505050565b6000610ded610de884610d9a565b610d7f565b905082815260208101848484011115610e0957610e08610d1a565b5b610e14848285610dcb565b509392505050565b600082601f830112610e3157610e30610d15565b5b8135610e41848260208601610dda565b91505092915050565b600060208284031215610e6057610e5f610b5c565b5b600082013567ffffffffffffffff811115610e7e57610e7d610b61565b5b610e8a84828501610e1c565b91505092915050565b600080600060608486031215610eac57610eab610b5c565b5b6000610eba86828701610b87565b935050602084013567ffffffffffffffff811115610edb57610eda610b61565b5b610ee786828701610e1c565b9250506040610ef886828701610b87565b9150509250925092565b600067ffffffffffffffff821115610f1d57610f1c610d1f565b5b602082029050602081019050919050565b600080fd5b6000610f46610f4184610f02565b610d7f565b90508083825260208201905060208402830185811115610f6957610f68610f2e565b5b835b81811015610fb057803567ffffffffffffffff811115610f8e57610f8d610d15565b5b808601610f9b8982610e1c565b85526020850194505050602081019050610f6b565b5050509392505050565b600082601f830112610fcf57610fce610d15565b5b8135610fdf848260208601610f33565b91505092915050565b600067ffffffffffffffff82111561100357611002610d1f565b5b602082029050602081019050919050565b600073ffffffffffffffffffffffffffffffffffffffff82169050919050565b600061103f82611014565b9050919050565b61104f81611034565b811461105a57600080fd5b50565b60008135905061106c81611046565b92915050565b600061108561108084610fe8565b610d7f565b905080838252602082019050602084028301858111156110a8576110a7610f2e565b5b835b818110156110d157806110bd888261105d565b8452602084019350506020810190506110aa565b5050509392505050565b600082601f8301126110f0576110ef610d15565b5b8135611100848260208601611072565b91505092915050565b6000806000806080858703121561112357611122610b5c565b5b600085013567ffffffffffffffff81111561114157611140610b61565b5b61114d87828801610e1c565b945050602085013567ffffffffffffffff81111561116e5761116d610b61565b5b61117a87828801610fba565b935050604085013567ffffffffffffffff81111561119b5761119a610b61565b5b6111a787828801610e1c565b925050606085013567ffffffffffffffff8111156111c8576111c7610b61565b5b6111d4878288016110db565b91505092959194509250565b6000602082840312156111f6576111f5610b5c565b5b60006112048482850161105d565b91505092915050565b61121681611034565b82525050565b6000604082019050611231600083018561120d565b81810360208301526112438184610c38565b90509392505050565b7f4e487b7100000000000000000000000000000000000000000000000000000000600052602260045260246000fd5b6000600282049050600182168061129357607f821691505b6020821081036112a6576112a561124c565b5b50919050565b7f5573657220616c72656164792065786973747300000000000000000000000000600082015250565b60006112e2601383610be3565b91506112ed826112ac565b602082019050919050565b60006020820190508181036000830152611311816112d5565b9050919050565b7f496e76616c696420706f73742049440000000000000000000000000000000000600082015250565b600061134e600f83610be3565b915061135982611318565b602082019050919050565b6000602082019050818103600083015261137d81611341565b9050919050565b7f436f6d6d656e7420746578742063616e6e6f7420626520656d70747900000000600082015250565b60006113ba601c83610be3565b91506113c582611384565b602082019050919050565b600060208201905081810360008301526113e9816113ad565b9050919050565b7f4e487b7100000000000000000000000000000000000000000000000000000000600052601160045260246000fd5b600061142a82610b66565b915061143583610b66565b9250827fffffffffffffffffffffffffffffffffffffffffffffffffffffffffffffffff0382111561146a576114696113f0565b5b828201905092915050565b6000602082019050818103600083015261148f8184610c38565b905092915050565b7f506f737420746578742063616e6e6f7420626520656d70747900000000000000600082015250565b60006114cd601983610be3565b91506114d882611497565b602082019050919050565b600060208201905081810360008301526114fc816114c0565b9050919050565b600061150e82610b66565b91507fffffffffffffffffffffffffffffffffffffffffffffffffffffffffffffffff82036115405761153f6113f0565b5b60018201905091905056fea264697066735822122049722d5c31811981e968a4fb12fce8c688f833142852d5f57f5848b0c11e9b9964736f6c634300080d0033",
  "immutableReferences": {},
  "source": "// SPDX-License-Identifier: MIT\npragma solidity ^0.8.13;\n\ncontract SocialMedia {\n    struct User {\n        address userAddress;\n        string name;\n    }\n\n    struct Post {\n        uint256 id;\n        string text;\n        string[] tags;\n        string gif;\n        address[] mentions;\n        uint256 timestamp;\n        Comment[] comments;\n        uint256[] reactions;\n    }\n\n    struct Comment {\n        uint256 id;\n        uint256 timestamp;\n        string text;\n        uint256[] reactions;\n        uint256 replyTo; // ID of the post or comment being replied to\n    }\n\n    mapping(address => User) public users;\n    mapping(uint256 => Post) public posts;\n\n    uint256 public postCount;\n\n    event PostCreated(uint256 indexed postId, address indexed userAddress, string text);\n    event CommentAdded(uint256 indexed postId, uint256 indexed commentId, address indexed userAddress, string text);\n\n    function isRegistered() public view returns (bool) {\n        return users[msg.sender].userAddress != address(0);\n    }\n\n    function createUser(string memory _name) public {\n        require(users[msg.sender].userAddress == address(0), \"User already exists\");\n        \n        users[msg.sender] = User(msg.sender, _name);\n    }\n\n    function createPost(string memory _text, string[] memory _tags, string memory _gif, address[] memory _mentions) public {\n        require(bytes(_text).length > 0, \"Post text cannot be empty\");\n\n        postCount++;\n\n        Post storage newPost = posts[postCount];\n        newPost.id = postCount;\n        newPost.text = _text;\n        newPost.tags = _tags;\n        newPost.gif = _gif;\n        newPost.mentions = _mentions;\n        newPost.timestamp = block.timestamp;\n\n        emit PostCreated(postCount, msg.sender, _text);\n    }\n\n    function addComment(uint256 _postId, string memory _text, uint256 _replyTo) public {\n        require(_postId <= postCount, \"Invalid post ID\");\n        require(bytes(_text).length > 0, \"Comment text cannot be empty\");\n\n        Post storage post = posts[_postId];\n        uint256 commentId = post.comments.length + 1;\n\n        Comment memory newComment = Comment({\n            id: commentId,\n            timestamp: block.timestamp,\n            text: _text,\n            reactions: new uint256[](0),\n            replyTo: _replyTo\n        });\n\n        post.comments.push(newComment);\n\n        emit CommentAdded(_postId, commentId, msg.sender, _text);\n    }\n}\n",
  "sourcePath": "/Users/piyush/Programming/blocnet/truffle/contracts/SocialMedia.sol",
  "compiler": {
    "name": "solc",
    "version": "0.8.13+commit.abaa5c0e.Emscripten.clang"
  },
  "schemaVersion": "3.4.16",
  "updatedAt": "2024-01-24T11:07:07.417Z",
  "networkType": "ethereum",
  "devdoc": {
    "kind": "dev",
    "methods": {},
    "version": 1
  },
  "userdoc": {
    "kind": "user",
    "methods": {},
    "version": 1
  }
}