{
  "contractName": "SocialMedia",
  "abi": [
    {
      "anonymous": false,
      "inputs": [
        {
          "indexed": true,
          "internalType": "uint256",
          "name": "postId",
          "type": "uint256"
        },
        {
          "indexed": true,
          "internalType": "uint256",
          "name": "commentId",
          "type": "uint256"
        },
        {
          "indexed": true,
          "internalType": "address",
          "name": "userAddress",
          "type": "address"
        },
        {
          "indexed": false,
          "internalType": "string",
          "name": "text",
          "type": "string"
        }
      ],
      "name": "CommentAdded",
      "type": "event"
    },
    {
      "anonymous": false,
      "inputs": [
        {
          "indexed": true,
          "internalType": "uint256",
          "name": "postId",
          "type": "uint256"
        },
        {
          "indexed": true,
          "internalType": "address",
          "name": "userAddress",
          "type": "address"
        },
        {
          "indexed": false,
          "internalType": "string",
          "name": "text",
          "type": "string"
        },
        {
          "indexed": false,
          "internalType": "string[]",
          "name": "tags",
          "type": "string[]"
        },
        {
          "indexed": false,
          "internalType": "string",
          "name": "gif",
          "type": "string"
        },
        {
          "indexed": false,
          "internalType": "address[]",
          "name": "mentions",
          "type": "address[]"
        },
        {
          "indexed": false,
          "internalType": "uint256",
          "name": "timestamp",
          "type": "uint256"
        }
      ],
      "name": "PostCreated",
      "type": "event"
    },
    {
      "inputs": [],
      "name": "postCount",
      "outputs": [
        {
          "internalType": "uint256",
          "name": "",
          "type": "uint256"
        }
      ],
      "stateMutability": "view",
      "type": "function",
      "constant": true
    },
    {
      "inputs": [
        {
          "internalType": "uint256",
          "name": "",
          "type": "uint256"
        }
      ],
      "name": "posts",
      "outputs": [
        {
          "internalType": "uint256",
          "name": "id",
          "type": "uint256"
        },
        {
          "internalType": "string",
          "name": "text",
          "type": "string"
        },
        {
          "internalType": "string",
          "name": "gif",
          "type": "string"
        },
        {
          "internalType": "uint256",
          "name": "timestamp",
          "type": "uint256"
        }
      ],
      "stateMutability": "view",
      "type": "function",
      "constant": true
    },
    {
      "inputs": [
        {
          "internalType": "address",
          "name": "",
          "type": "address"
        }
      ],
      "name": "users",
      "outputs": [
        {
          "internalType": "address",
          "name": "userAddress",
          "type": "address"
        },
        {
          "internalType": "string",
          "name": "name",
          "type": "string"
        }
      ],
      "stateMutability": "view",
      "type": "function",
      "constant": true
    },
    {
      "inputs": [],
      "name": "isRegistered",
      "outputs": [
        {
          "internalType": "bool",
          "name": "",
          "type": "bool"
        }
      ],
      "stateMutability": "view",
      "type": "function",
      "constant": true
    },
    {
      "inputs": [
        {
          "internalType": "string",
          "name": "_name",
          "type": "string"
        }
      ],
      "name": "createUser",
      "outputs": [],
      "stateMutability": "nonpayable",
      "type": "function"
    },
    {
      "inputs": [
        {
          "internalType": "string",
          "name": "_text",
          "type": "string"
        },
        {
          "internalType": "string[]",
          "name": "_tags",
          "type": "string[]"
        },
        {
          "internalType": "string",
          "name": "_gif",
          "type": "string"
        },
        {
          "internalType": "address[]",
          "name": "_mentions",
          "type": "address[]"
        }
      ],
      "name": "createPost",
      "outputs": [],
      "stateMutability": "nonpayable",
      "type": "function"
    },
    {
      "inputs": [
        {
          "internalType": "uint256",
          "name": "_postId",
          "type": "uint256"
        },
        {
          "internalType": "string",
          "name": "_text",
          "type": "string"
        },
        {
          "internalType": "uint256",
          "name": "_replyTo",
          "type": "uint256"
        }
      ],
      "name": "addComment",
      "outputs": [],
      "stateMutability": "nonpayable",
      "type": "function"
    },
    {
      "inputs": [
        {
          "internalType": "uint256",
          "name": "_postId",
          "type": "uint256"
        }
      ],
      "name": "getPost",
      "outputs": [
        {
          "internalType": "uint256",
          "name": "id",
          "type": "uint256"
        },
        {
          "internalType": "string",
          "name": "text",
          "type": "string"
        },
        {
          "internalType": "string[]",
          "name": "tags",
          "type": "string[]"
        },
        {
          "internalType": "string",
          "name": "gif",
          "type": "string"
        },
        {
          "internalType": "address[]",
          "name": "mentions",
          "type": "address[]"
        },
        {
          "internalType": "uint256",
          "name": "timestamp",
          "type": "uint256"
        },
        {
          "components": [
            {
              "internalType": "uint256",
              "name": "id",
              "type": "uint256"
            },
            {
              "internalType": "uint256",
              "name": "timestamp",
              "type": "uint256"
            },
            {
              "internalType": "string",
              "name": "text",
              "type": "string"
            },
            {
              "internalType": "uint256[]",
              "name": "reactions",
              "type": "uint256[]"
            },
            {
              "internalType": "uint256",
              "name": "replyTo",
              "type": "uint256"
            }
          ],
          "internalType": "struct SocialMedia.Comment[]",
          "name": "comments",
          "type": "tuple[]"
        },
        {
          "internalType": "uint256[]",
          "name": "reactions",
          "type": "uint256[]"
        }
      ],
      "stateMutability": "view",
      "type": "function",
      "constant": true
    }
  ],
  "bytecode": "0x608060405234801561001057600080fd5b50611fe5806100206000396000f3fe608060405234801561001057600080fd5b50600436106100885760003560e01c8063507ffba51161005b578063507ffba5146101335780636c6db1361461014f5780637776a21b1461016b578063a87430ba1461018757610088565b80630b1e7f831461008d57806317906c2e146100c057806322366844146100de57806340731c24146100fc575b600080fd5b6100a760048036038101906100a291906110b3565b6101b8565b6040516100b79493929190611188565b60405180910390f35b6100c86102f8565b6040516100d591906111db565b60405180910390f35b6100e66102fe565b6040516100f39190611211565b60405180910390f35b610116600480360381019061011191906110b3565b610396565b60405161012a989796959493929190611694565b60405180910390f35b61014d60048036038101906101489190611871565b610863565b005b610169600480360381019061016491906118ba565b610a06565b005b61018560048036038101906101809190611afe565b610c12565b005b6101a1600480360381019061019c9190611bd5565b610d5f565b6040516101af929190611c11565b60405180910390f35b60016020528060005260406000206000915090508060000154908060010180546101e190611c70565b80601f016020809104026020016040519081016040528092919081815260200182805461020d90611c70565b801561025a5780601f1061022f5761010080835404028352916020019161025a565b820191906000526020600020905b81548152906001019060200180831161023d57829003601f168201915b50505050509080600301805461026f90611c70565b80601f016020809104026020016040519081016040528092919081815260200182805461029b90611c70565b80156102e85780601f106102bd576101008083540402835291602001916102e8565b820191906000526020600020905b8154815290600101906020018083116102cb57829003601f168201915b5050505050908060050154905084565b60025481565b60008073ffffffffffffffffffffffffffffffffffffffff166000803373ffffffffffffffffffffffffffffffffffffffff1673ffffffffffffffffffffffffffffffffffffffff16815260200190815260200160002060000160009054906101000a900473ffffffffffffffffffffffffffffffffffffffff1673ffffffffffffffffffffffffffffffffffffffff161415905090565b600060608060608060006060806002548911156103e8576040517f08c379a00000000000000000000000000000000000000000000000000000000081526004016103df90611ced565b60405180910390fd5b6000600160008b815260200190815260200160002090508060000154816001018260020183600301846004018560050154866006018760070186805461042d90611c70565b80601f016020809104026020016040519081016040528092919081815260200182805461045990611c70565b80156104a65780601f1061047b576101008083540402835291602001916104a6565b820191906000526020600020905b81548152906001019060200180831161048957829003601f168201915b5050505050965085805480602002602001604051908101604052809291908181526020016000905b8282101561057a5783829060005260206000200180546104ed90611c70565b80601f016020809104026020016040519081016040528092919081815260200182805461051990611c70565b80156105665780601f1061053b57610100808354040283529160200191610566565b820191906000526020600020905b81548152906001019060200180831161054957829003601f168201915b5050505050815260200190600101906104ce565b50505050955084805461058c90611c70565b80601f01602080910402602001604051908101604052809291908181526020018280546105b890611c70565b80156106055780601f106105da57610100808354040283529160200191610605565b820191906000526020600020905b8154815290600101906020018083116105e857829003601f168201915b505050505094508380548060200260200160405190810160405280929190818152602001828054801561068d57602002820191906000526020600020905b8160009054906101000a900473ffffffffffffffffffffffffffffffffffffffff1673ffffffffffffffffffffffffffffffffffffffff1681526020019060010190808311610643575b5050505050935081805480602002602001604051908101604052809291908181526020016000905b828210156107ef57838290600052602060002090600502016040518060a001604052908160008201548152602001600182015481526020016002820180546106fc90611c70565b80601f016020809104026020016040519081016040528092919081815260200182805461072890611c70565b80156107755780601f1061074a57610100808354040283529160200191610775565b820191906000526020600020905b81548152906001019060200180831161075857829003601f168201915b50505050508152602001600382018054806020026020016040519081016040528092919081815260200182805480156107cd57602002820191906000526020600020905b8154815260200190600101908083116107b9575b50505050508152602001600482015481525050815260200190600101906106b5565b5050505091508080548060200260200160405190810160405280929190818152602001828054801561084057602002820191906000526020600020905b81548152602001906001019080831161082c575b505050505090509850985098509850985098509850985050919395975091939597565b600073ffffffffffffffffffffffffffffffffffffffff166000803373ffffffffffffffffffffffffffffffffffffffff1673ffffffffffffffffffffffffffffffffffffffff16815260200190815260200160002060000160009054906101000a900473ffffffffffffffffffffffffffffffffffffffff1673ffffffffffffffffffffffffffffffffffffffff1614610933576040517f08c379a000000000000000000000000000000000000000000000000000000000815260040161092a90611d59565b60405180910390fd5b60405180604001604052803373ffffffffffffffffffffffffffffffffffffffff168152602001828152506000803373ffffffffffffffffffffffffffffffffffffffff1673ffffffffffffffffffffffffffffffffffffffff16815260200190815260200160002060008201518160000160006101000a81548173ffffffffffffffffffffffffffffffffffffffff021916908373ffffffffffffffffffffffffffffffffffffffff16021790555060208201518160010190805190602001906109ff929190610e2b565b5090505050565b600254831115610a4b576040517f08c379a0000000000000000000000000000000000000000000000000000000008152600401610a4290611ced565b60405180910390fd5b6000825111610a8f576040517f08c379a0000000000000000000000000000000000000000000000000000000008152600401610a8690611dc5565b60405180910390fd5b6000600160008581526020019081526020016000209050600060018260060180549050610abc9190611e14565b905060006040518060a00160405280838152602001428152602001868152602001600067ffffffffffffffff811115610af857610af7611746565b5b604051908082528060200260200182016040528015610b265781602001602082028036833780820191505090505b5081526020018581525090508260060181908060018154018082558091505060019003906000526020600020906005020160009091909190915060008201518160000155602082015181600101556040820151816002019080519060200190610b90929190610e2b565b506060820151816003019080519060200190610bad929190610eb1565b506080820151816004015550503373ffffffffffffffffffffffffffffffffffffffff1682877f96d81cac001a263174d42d42cfad470fec9d863bcf6d52ba8b93d47c7ee00de388604051610c029190611e6a565b60405180910390a4505050505050565b6000845111610c56576040517f08c379a0000000000000000000000000000000000000000000000000000000008152600401610c4d90611ed8565b60405180910390fd5b60026000815480929190610c6990611ef8565b919050555060006001600060025481526020019081526020016000209050600254816000018190555084816001019080519060200190610caa929190610e2b565b5083816002019080519060200190610cc3929190610efe565b5082816003019080519060200190610cdc929190610e2b565b5081816004019080519060200190610cf5929190610f5e565b504281600501819055503373ffffffffffffffffffffffffffffffffffffffff166002547fd750c6b9cb272973169d1826b9b0b8558db3ca31f276d588b2e6e325f712dcad8787878742604051610d50959493929190611f40565b60405180910390a35050505050565b60006020528060005260406000206000915090508060000160009054906101000a900473ffffffffffffffffffffffffffffffffffffffff1690806001018054610da890611c70565b80601f0160208091040260200160405190810160405280929190818152602001828054610dd490611c70565b8015610e215780601f10610df657610100808354040283529160200191610e21565b820191906000526020600020905b815481529060010190602001808311610e0457829003601f168201915b5050505050905082565b828054610e3790611c70565b90600052602060002090601f016020900481019282610e595760008555610ea0565b82601f10610e7257805160ff1916838001178555610ea0565b82800160010185558215610ea0579182015b82811115610e9f578251825591602001919060010190610e84565b5b509050610ead9190610fe8565b5090565b828054828255906000526020600020908101928215610eed579160200282015b82811115610eec578251825591602001919060010190610ed1565b5b509050610efa9190610fe8565b5090565b828054828255906000526020600020908101928215610f4d579160200282015b82811115610f4c578251829080519060200190610f3c929190610e2b565b5091602001919060010190610f1e565b5b509050610f5a9190611005565b5090565b828054828255906000526020600020908101928215610fd7579160200282015b82811115610fd65782518260006101000a81548173ffffffffffffffffffffffffffffffffffffffff021916908373ffffffffffffffffffffffffffffffffffffffff16021790555091602001919060010190610f7e565b5b509050610fe49190610fe8565b5090565b5b80821115611001576000816000905550600101610fe9565b5090565b5b80821115611025576000818161101c9190611029565b50600101611006565b5090565b50805461103590611c70565b6000825580601f106110475750611066565b601f0160209004906000526020600020908101906110659190610fe8565b5b50565b6000604051905090565b600080fd5b600080fd5b6000819050919050565b6110908161107d565b811461109b57600080fd5b50565b6000813590506110ad81611087565b92915050565b6000602082840312156110c9576110c8611073565b5b60006110d78482850161109e565b91505092915050565b6110e98161107d565b82525050565b600081519050919050565b600082825260208201905092915050565b60005b8381101561112957808201518184015260208101905061110e565b83811115611138576000848401525b50505050565b6000601f19601f8301169050919050565b600061115a826110ef565b61116481856110fa565b935061117481856020860161110b565b61117d8161113e565b840191505092915050565b600060808201905061119d60008301876110e0565b81810360208301526111af818661114f565b905081810360408301526111c3818561114f565b90506111d260608301846110e0565b95945050505050565b60006020820190506111f060008301846110e0565b92915050565b60008115159050919050565b61120b816111f6565b82525050565b60006020820190506112266000830184611202565b92915050565b600081519050919050565b600082825260208201905092915050565b6000819050602082019050919050565b600082825260208201905092915050565b6000611274826110ef565b61127e8185611258565b935061128e81856020860161110b565b6112978161113e565b840191505092915050565b60006112ae8383611269565b905092915050565b6000602082019050919050565b60006112ce8261122c565b6112d88185611237565b9350836020820285016112ea85611248565b8060005b85811015611326578484038952815161130785826112a2565b9450611312836112b6565b925060208a019950506001810190506112ee565b50829750879550505050505092915050565b600081519050919050565b600082825260208201905092915050565b6000819050602082019050919050565b600073ffffffffffffffffffffffffffffffffffffffff82169050919050565b600061138f82611364565b9050919050565b61139f81611384565b82525050565b60006113b18383611396565b60208301905092915050565b6000602082019050919050565b60006113d582611338565b6113df8185611343565b93506113ea83611354565b8060005b8381101561141b57815161140288826113a5565b975061140d836113bd565b9250506001810190506113ee565b5085935050505092915050565b600081519050919050565b600082825260208201905092915050565b6000819050602082019050919050565b61145d8161107d565b82525050565b600081519050919050565b600082825260208201905092915050565b6000819050602082019050919050565b600061149b8383611454565b60208301905092915050565b6000602082019050919050565b60006114bf82611463565b6114c9818561146e565b93506114d48361147f565b8060005b838110156115055781516114ec888261148f565b97506114f7836114a7565b9250506001810190506114d8565b5085935050505092915050565b600060a08301600083015161152a6000860182611454565b50602083015161153d6020860182611454565b50604083015184820360408601526115558282611269565b9150506060830151848203606086015261156f82826114b4565b91505060808301516115846080860182611454565b508091505092915050565b600061159b8383611512565b905092915050565b6000602082019050919050565b60006115bb82611428565b6115c58185611433565b9350836020820285016115d785611444565b8060005b8581101561161357848403895281516115f4858261158f565b94506115ff836115a3565b925060208a019950506001810190506115db565b50829750879550505050505092915050565b600082825260208201905092915050565b600061164182611463565b61164b8185611625565b93506116568361147f565b8060005b8381101561168757815161166e888261148f565b9750611679836114a7565b92505060018101905061165a565b5085935050505092915050565b6000610100820190506116aa600083018b6110e0565b81810360208301526116bc818a61114f565b905081810360408301526116d081896112c3565b905081810360608301526116e4818861114f565b905081810360808301526116f881876113ca565b905061170760a08301866110e0565b81810360c083015261171981856115b0565b905081810360e083015261172d8184611636565b90509998505050505050505050565b600080fd5b600080fd5b7f4e487b7100000000000000000000000000000000000000000000000000000000600052604160045260246000fd5b61177e8261113e565b810181811067ffffffffffffffff8211171561179d5761179c611746565b5b80604052505050565b60006117b0611069565b90506117bc8282611775565b919050565b600067ffffffffffffffff8211156117dc576117db611746565b5b6117e58261113e565b9050602081019050919050565b82818337600083830152505050565b600061181461180f846117c1565b6117a6565b9050828152602081018484840111156118305761182f611741565b5b61183b8482856117f2565b509392505050565b600082601f8301126118585761185761173c565b5b8135611868848260208601611801565b91505092915050565b60006020828403121561188757611886611073565b5b600082013567ffffffffffffffff8111156118a5576118a4611078565b5b6118b184828501611843565b91505092915050565b6000806000606084860312156118d3576118d2611073565b5b60006118e18682870161109e565b935050602084013567ffffffffffffffff81111561190257611901611078565b5b61190e86828701611843565b925050604061191f8682870161109e565b9150509250925092565b600067ffffffffffffffff82111561194457611943611746565b5b602082029050602081019050919050565b600080fd5b600061196d61196884611929565b6117a6565b905080838252602082019050602084028301858111156119905761198f611955565b5b835b818110156119d757803567ffffffffffffffff8111156119b5576119b461173c565b5b8086016119c28982611843565b85526020850194505050602081019050611992565b5050509392505050565b600082601f8301126119f6576119f561173c565b5b8135611a0684826020860161195a565b91505092915050565b600067ffffffffffffffff821115611a2a57611a29611746565b5b602082029050602081019050919050565b611a4481611384565b8114611a4f57600080fd5b50565b600081359050611a6181611a3b565b92915050565b6000611a7a611a7584611a0f565b6117a6565b90508083825260208201905060208402830185811115611a9d57611a9c611955565b5b835b81811015611ac65780611ab28882611a52565b845260208401935050602081019050611a9f565b5050509392505050565b600082601f830112611ae557611ae461173c565b5b8135611af5848260208601611a67565b91505092915050565b60008060008060808587031215611b1857611b17611073565b5b600085013567ffffffffffffffff811115611b3657611b35611078565b5b611b4287828801611843565b945050602085013567ffffffffffffffff811115611b6357611b62611078565b5b611b6f878288016119e1565b935050604085013567ffffffffffffffff811115611b9057611b8f611078565b5b611b9c87828801611843565b925050606085013567ffffffffffffffff811115611bbd57611bbc611078565b5b611bc987828801611ad0565b91505092959194509250565b600060208284031215611beb57611bea611073565b5b6000611bf984828501611a52565b91505092915050565b611c0b81611384565b82525050565b6000604082019050611c266000830185611c02565b8181036020830152611c38818461114f565b90509392505050565b7f4e487b7100000000000000000000000000000000000000000000000000000000600052602260045260246000fd5b60006002820490506001821680611c8857607f821691505b602082108103611c9b57611c9a611c41565b5b50919050565b7f496e76616c696420706f73742049440000000000000000000000000000000000600082015250565b6000611cd7600f836110fa565b9150611ce282611ca1565b602082019050919050565b60006020820190508181036000830152611d0681611cca565b9050919050565b7f5573657220616c72656164792065786973747300000000000000000000000000600082015250565b6000611d436013836110fa565b9150611d4e82611d0d565b602082019050919050565b60006020820190508181036000830152611d7281611d36565b9050919050565b7f436f6d6d656e7420746578742063616e6e6f7420626520656d70747900000000600082015250565b6000611daf601c836110fa565b9150611dba82611d79565b602082019050919050565b60006020820190508181036000830152611dde81611da2565b9050919050565b7f4e487b7100000000000000000000000000000000000000000000000000000000600052601160045260246000fd5b6000611e1f8261107d565b9150611e2a8361107d565b9250827fffffffffffffffffffffffffffffffffffffffffffffffffffffffffffffffff03821115611e5f57611e5e611de5565b5b828201905092915050565b60006020820190508181036000830152611e84818461114f565b905092915050565b7f506f737420746578742063616e6e6f7420626520656d70747900000000000000600082015250565b6000611ec26019836110fa565b9150611ecd82611e8c565b602082019050919050565b60006020820190508181036000830152611ef181611eb5565b9050919050565b6000611f038261107d565b91507fffffffffffffffffffffffffffffffffffffffffffffffffffffffffffffffff8203611f3557611f34611de5565b5b600182019050919050565b600060a0820190508181036000830152611f5a818861114f565b90508181036020830152611f6e81876112c3565b90508181036040830152611f82818661114f565b90508181036060830152611f9681856113ca565b9050611fa560808301846110e0565b969550505050505056fea264697066735822122089648d74f8f1f439b80f948c2707f298974c6ef43d4bfc07b2da12b94935e88f64736f6c634300080d0033",
  "immutableReferences": {},
  "source": "// SPDX-License-Identifier: MIT\npragma solidity ^0.8.13;\n\ncontract SocialMedia {\n    struct User {\n        address userAddress;\n        string name;\n    }\n\n    struct Post {\n        uint256 id;\n        string text;\n        string[] tags;\n        string gif;\n        address[] mentions;\n        uint256 timestamp;\n        Comment[] comments;\n        uint256[] reactions;\n    }\n\n    struct Comment {\n        uint256 id;\n        uint256 timestamp;\n        string text;\n        uint256[] reactions;\n        uint256 replyTo; // ID of the post or comment being replied to\n    }\n\n    mapping(address => User) public users;\n    mapping(uint256 => Post) public posts;\n\n    uint256 public postCount;\n\n    event PostCreated(uint256 indexed postId, address indexed userAddress, string text, string[] tags, string gif, address[] mentions, uint256 timestamp);\n    event CommentAdded(uint256 indexed postId, uint256 indexed commentId, address indexed userAddress, string text);\n\n    function isRegistered() public view returns (bool) {\n        return users[msg.sender].userAddress != address(0);\n    }\n\n    function createUser(string memory _name) public {\n        require(users[msg.sender].userAddress == address(0), \"User already exists\");\n        \n        users[msg.sender] = User(msg.sender, _name);\n    }\n\n    function createPost(string memory _text, string[] memory _tags, string memory _gif, address[] memory _mentions) public {\n        require(bytes(_text).length > 0, \"Post text cannot be empty\");\n\n        postCount++;\n\n        Post storage newPost = posts[postCount];\n        newPost.id = postCount;\n        newPost.text = _text;\n        newPost.tags = _tags;\n        newPost.gif = _gif;\n        newPost.mentions = _mentions;\n        newPost.timestamp = block.timestamp;\n\n        emit PostCreated(postCount, msg.sender, _text, _tags, _gif, _mentions, block.timestamp);\n    }\n\n    function addComment(uint256 _postId, string memory _text, uint256 _replyTo) public {\n        require(_postId <= postCount, \"Invalid post ID\");\n        require(bytes(_text).length > 0, \"Comment text cannot be empty\");\n\n        Post storage post = posts[_postId];\n        uint256 commentId = post.comments.length + 1;\n\n        Comment memory newComment = Comment({\n            id: commentId,\n            timestamp: block.timestamp,\n            text: _text,\n            reactions: new uint256[](0),\n            replyTo: _replyTo\n        });\n\n        post.comments.push(newComment);\n\n        emit CommentAdded(_postId, commentId, msg.sender, _text);\n    }\n\n    function getPost(uint256 _postId) public view returns (\n        uint256 id,\n        string memory text,\n        string[] memory tags,\n        string memory gif,\n        address[] memory mentions,\n        uint256 timestamp,\n        Comment[] memory comments,\n        uint256[] memory reactions\n    ) {\n        require(_postId <= postCount, \"Invalid post ID\");\n\n        Post storage post = posts[_postId];\n\n        return (\n            post.id,\n            post.text,\n            post.tags,\n            post.gif,\n            post.mentions,\n            post.timestamp,\n            post.comments,\n            post.reactions\n        );\n    }\n}\n",
  "sourcePath": "/Users/piyush/Programming/blocnet/truffle/contracts/SocialMedia.sol",
  "compiler": {
    "name": "solc",
    "version": "0.8.13+commit.abaa5c0e.Emscripten.clang"
  },
  "schemaVersion": "3.4.16",
  "updatedAt": "2024-01-24T14:28:04.906Z",
  "networkType": "ethereum",
  "devdoc": {
    "kind": "dev",
    "methods": {},
    "version": 1
  },
  "userdoc": {
    "kind": "user",
    "methods": {},
    "version": 1
  }
}